:100000000201941201A0EF60FA1201AC8F097E0088
:10001000C3EF9430748094804035D3EF943974806A
:100020009480502B1201A0EF70D9F508C3E5089415
:10003000087480948050ED75F008E509A42409F552
:1000400082E5F034011200DEE4F580050880DDAFC2
:10005000097E00C3EF9441748094804035D3EF94BF
:100060005A74809480502B1201A0EF7096F508C34B
:10007000E50894087480948050ED75F008E509A4B3
:1000800024B1F582E5F034FF1200DEE4F5800508C6
:1000900080DDAF097E00C3EF9461748094805003CB
:1000A000020003D3EF947A7480948040030200032B
:1000B0001201A0EF6003020003F508C3E5089408ED
:1000C0007480948050EA75F008E509A424B1F582A3
:1000D000E5F034FE1200DEE4F580050880DDF583EE
:1000E000E5822508F582E43583F583E493FF120168
:1000F0001DE5089001B193F5807F017E00E4FDFCD1
:10010000C3ED9FEC9E5015E4FBFA0BBB00010AEB1C
:10011000647B4A70F50DBD00010C80E422AD07E45C
:10012000FBEBC394087480948050237E007480A8F5
:1001300003088006CEA2E713CE13D8F8FFEDF582B0
:10014000EF558224FF92A1C2A0D2A00B80D3C2A3FC
:10015000D2A322BB010CE58229F582E5833AF5831F
:10016000E0225006E92582F8E622BBFE06E9258258
:10017000F8E222E58229F582E5833AF583E49322C9
:1001800053890F438920C29FD29ED29C758DFDD288
:100190008ED29922787FE4F6D8FD7581090201A6F6
:1001A000A298E433FF22120180020003C298AF99A3
:1001B000220102040810204080FFC080B7B780C031
:1001C000FFFF8080B6B680C9FFFFC180BEBE9CDD48
:1001D000FFFF8080BEBE80C1FFFF8080B6B6BEBE7E
:1001E000FFFF8080B7B7BFBFFFFFC180BEBA98D9FD
:1001F000FFFF8080F7F78080FFFFFFBE8080BEFF9B
:10020000FFFFF9F8BE8081BFFFFF8080E3C99CBE7D
:10021000FFFF8080FEFEFEFEFFFF8080CFE7CF80E5
:1002200080FF8080CFE7F38080FFC180BEBE80C1A9
:10023000FFFF8080BBBB83C7FFFFC381BDBD80C202
:10024000FFFF8080B3B184CEFFFFCD84B6B690D9D6
:10025000FFFF9FBF8080BF9FFFFF8180FEFE8080E9
:10026000FFFF8381FCFC8183FFFF8080F9F3F9802D
:1002700080FF9C88E3F7E3889CFF8F87F0F0878FEF
:10028000FFFFBCB8B2A68E9EFFFFC180AEB680C194
:10029000FFFFFEEE8080FEFEFFFFDC98BAB686CE42
:1002A000FFFFDD9CB6B680C9FFFFF3EBDB8080FB70
:1002B000FFFF8D8CAEAEA0B1FFFFC180B6B690D966
:1002C000FFFF9F9FB8A0879FFFFFC980B6B680C978
:0902D000FFFFCD84B6B680C1FF2A
:00000001FF
