:1001D5000E11131519110E1F040404140C041F1815
:1001E5000C0603110E0E11010701110E02021F125A
:1001F5000804021F01011F10101F1F11111F1010ED
:100205001F0404020101110E0E11110E11110E0E23
:0602150011011F11110E82
:10026100E4FDFCC3ED9FEC9E5015E4FBFA0BBB00D3
:0F027100010AEB647B4A70F50DBD00010C80E4BF
:01028000225B
:100140008B0A8A0B890C12021BF580D2B07F017ECC
:1001500000120261C2B0AB0AAA0BA90C90000112F6
:100160000234F580D2B1120261C2B1AB0AAA0BA966
:100170000C900002120234F580D2B2120261C2B2B7
:10018000AB0AAA0BA90C900003120234F580D2B37B
:10019000120261C2B3AB0AAA0BA90C9000041202AE
:1001A00034F580D2B4120261C2B4AB0AAA0BA90C16
:1001B000900005120234F580D2B5120261C2B5ABCF
:1001C0000AAA0BA90C900006120234F580D2B612CE
:0501D0000261C2B6222D
:10000300E4F508F5097BFF7A0179D512014005096A
:10001300E50970020508C3948EE508940040E6E400
:10002300F508F5097BFF7A0179DC1201400509E542
:100033000970020508C3948EE508940040E6E4F5D0
:1000430008F5097BFF7A0179E31201400509E50907
:1000530070020508C3948EE508940040E6E4F508B1
:10006300F5097BFF7A0179EA1201400509E5097078
:10007300020508C3948EE508940040E6E4F508F50C
:10008300097BFF7A0179F11201400509E509700244
:100093000508C3948EE508940040E6E4F508F509E5
:1000A3007BFF7A0179F81201400509E50970020521
:1000B30008C3948EE508940040E6E4F508F5097B4F
:1000C300FF7A0179FF1201400509E509700205086D
:1000D300C3948EE508940040E6E4F508F5097BFF38
:1000E3007A0279061201400509E50970020508C381
:1000F300948EE508940040E6E4F508F5097BFF7A61
:1001030002790D1201400509E50970020508C3943F
:100113008EE508940040E6E4F508F509C3E5099483
:100123008EE508940040030200037BFF7A027914F2
:0D0133001201400509E50970E3050880DFB1
:03028D0002000369
:0300000002028178
:0C028100787FE4F6D8FD75810C02028D38
:10021B00BB010689828A83E0225002E722BBFE02E1
:09022B00E32289828A83E4932214
:10023400BB010CE58229F582E5833AF583E022507F
:1002440006E92582F8E622BBFE06E92582F8E222C9
:0D025400E58229F582E5833AF583E49322E3
:00000001FF
