:100000000200BDE4F508F9E9C394027480948050BD
:10001000127FFF120086E4FF1200AD7F2C12008DCC
:100020000980E4E4F9E9C394027480948050127F5B
:10003000551200867FAA1200AD7F2C12008D098018
:10004000E4E4F509C3E5099402748094805036E431
:10005000F508AF081200AD7F64FE12008DE4F9E9E7
:10006000C39408748094805018E50825E0F508438F
:100070000801AF081200AD7F647E0012008D098078
:10008000DE050980BF221200AD7F2C7E01E4FDFC5D
:10009000C3ED9FEC9E5015E4FBFA0BBB00010AEB8D
:1000A000647B4A70F50DBD00010C80E422C29FC242
:1000B0009E8F993099FDC299C2B2D2B222787FE464
:0E00C000F6D8FD7581090200C912000380FB0D
:00000001FF
