:0A010800C0F9A4B0999282F880902B
:10000300C2A2C2A1C2A0E4F508F509AE08AF097CFB
:10001300007D6412008774082FF58274013EF58316
:10002300E493F580D2A0C2A0AE08AF097C007D0A9C
:100033001200877C007D0A12008774082DF58274F4
:10004300013CF583E493F580D2A1C2A1AE08AF09C8
:100053007C007D0A12008774082DF58274013CF53B
:1000630083E493F580D2A2C2A27F327E001200DC29
:100073000509E50970020508C394E8E508940340FF
:040083008A020003EA
:1000DC00E4FDFCC3ED9FEC9E5015E4FBFA0BBB005A
:0F00EC00010AEB647B4A70F50DBD00010C80E446
:0100FB0022E2
:03011200020003E5
:030000000200FCFF
:0C00FC00787FE4F6D8FD7581090201123E
:10008700BC000BBE0029EF8DF084FFADF022E4CC5D
:10009700F875F008EF2FFFEE33FEEC33FCEE9DEC26
:1000A700984005FCEE9DFE0FD5F0E9E4CEFD22ED6C
:1000B700F8F5F0EE8420D21CFEADF075F008EF2FB6
:1000C700FFED33FD4007985006D5F0F222C398FDA7
:0500D7000FD5F0EA2244
:00000001FF
