:10016C0053554E004D4F4E005455450057454400D5
:10017C0054485500465249005341540054494D458A
:10018C0020002020002F323000FF016CFF0170FF97
:0E019C000174FF0178FF017CFF0180FF0184E8
:1002B100E4FDFCC3ED9FEC9E5015E4FBFA0BBB0083
:0F02C100010AEB647B4A70F50DBD00010C80E46F
:0102D000220B
:070203007E001202B17F3002
:10020A00C2808FA0D281C281D3EF9402748094807D
:0E021A0050047F0280027F017E001202B1229A
:09030B0075F00A84E5F02430FFCE
:0F031400D2808FA0D281C2817F017E000202B110
:060228008B138A148915F6
:10022E00E4F516AB13AA14A9158516827583001270
:0C023E0001AAFF6007120314051680E7F8
:01024A002291
:0402F000AE07A903A9
:1002F400EF640170047F8080027FC0EF2D14FF1231
:07030400020AAF010203141D
:060290008B108A11891297
:10029600EF640170047F8080027FC0EF2D14FF128F
:0B02A600020AAB10AA11A912020228E4
:1001D7007F641202037F051202037F011202037F6D
:1001E7003812020A7F0112020A7F027E001202B150
:0C01F7007F0C12020A7F017E000202B1A0
:09032F00D291D290C290C2912239
:09033800D291C290D290D2912220
:0A012C0012032F7FD0120136AF043A
:02013600AD0713
:10013800E4FBEBC394087480948050237E007480A1
:10014800A803088006CEA2E713CE13D8F8FFEDF572
:1001580082EF558224FF9290D291C2910B80D3D224
:0301680091C291B0
:01016B002271
:10024B00E4FFFEEEC39408748094805015D291A203
:10025B00909200EF25E0FFA200E4334207C2910E1B
:02026B0080E130
:01026D00226E
:0202D100AC0778
:1002D300ED75F00A84C454F0FFED75F00A84EF2540
:0D02E300F0FA12012CAF02120136020338AE
:02026E00AC07DB
:1002700012012C12032F7FD112013612024B1203EE
:0F02800038EFC4540F75F00AA4FEEF540F2EFF91
:01028F00224C
:100003001201D7E4FDFF1202D17D137F011202D149
:100013007D0E7F021202D17D017F031202D17D0B7F
:100023007F041202D17D077F051202D17D157F0661
:100033001202D1E4FF12026E8F087F0112026E8F4B
:10004300097F0212026E8F0A7F0312026E8F0C7FEA
:100053000412026E8F0D7F0512026E8F0E7F061241
:10006300026E8F0FE50B650860C985080B7BFF7A6D
:100073000179887D017F01120290E50A75F00A84F7
:100083002430FB7D077F011202F0E50A12030B7F88
:100093003A120314E50975F00A842430FF1203149D
:1000A300E50912030B7F3A120314E50875F00A847D
:1000B3002430FF120314E50812030BE50C75F0035B
:1000C300A42492F582E43401F583E493FB74019351
:1000D300FA740293F97D017F021202907BFF7A0189
:1000E300798E120228E50D75F00A842430FF12037D
:1000F30014E50D12030B7F2F120314E50E75F00A9E
:10010300842430FF120314E50E12030B7BFF7A01E4
:100113007991120228E50F75F00A842430FF120347
:0901230014E50F12030B02003673
:03000000020323D5
:0C032300787FE4F6D8FD7581200200030D
:1001AA00BB010CE58229F582E5833AF583E022500A
:1001BA0006E92582F8E622BBFE06E92582F8E22254
:0D01CA00E58229F582E5833AF583E493226E
:00000001FF
