:09033500011700011000010B0189
:1002FB00E4FDFCC3ED9FEC9E5015E4FBFA0BBB0039
:0F030B00010AEB647B4A70F50DBD00010C80E424
:01031A0022C0
:10023C00D2B45389F0438901D2A9D2AF8E158F164F
:10024C00E515C313F508E51613F509C3E51695096D
:10025C00F519E5159508F518AE08AF09AB07AA0610
:10026C00E4C39BFFE49AFE74019400FDE49400FC4B
:10027C0078081200DC8E118F12E4C39BFFE4F51397
:10028C008F14AE18AF19AB07AA06C39BFFE49AFEF6
:10029C0074019400FDE49400FC78081200DC8E0CD0
:1002AC008F0DE4C39BFFE4F50E8F0F85128C851424
:0202BC008A2294
:10011D00B2B4EFFD7C007005C2B4C2A922ED6464D7
:10012D004C7005D2B4C2A922AC15AD167E001200DA
:10013D00F0E47B64FAF9F812004A8E088F09C3E5E2
:10014D00169509F519E5159508F518AB07AA06E4F6
:10015D00C39BFFE49AFE74019400FDE49400FC78C7
:10016D00081200DC8E118F12E4C39BFFE4F5138F90
:10017D0014AE18AF19AB07AA06C39BFFE49AFE7421
:10018D00019400FDE49400FC78081200DC8E0C8FC5
:10019D000DE4C39BFFE4F50E8F0F85128C85148A39
:0301AD00D2A922B2
:03000300D28C227A
:03000600C28C2287
:1002BE00850B1AE4F51B7FE87E0312023C12000345
:1002CE007F647E001202FBE51AB50B0F051B051BA2
:1002DE00E51B6464701085101A800B151B151BE549
:0D02EE001B7003850B1AAF1B12011D80D37E
:03000B0002031BD2
:10031B00120006B2B430B40885128C85148A80069C
:0A032B00850D8C850F8A1200033245
:030000000201B04A
:0C01B000787FE4F6D8FD75811B0201F792
:10000E0075F008758200EF2FFFEE33FECD33CDCCA9
:10001E0033CCC58233C5829BED9AEC99E58298402C
:10002E000CF582EE9BFEED9AFDEC99FC0FD5F0D609
:10003E00E4CEFBE4CDFAE4CCF9A88222B800C1B933
:10004E000059BA002DEC8BF084CFCECDFCE5F0CB71
:10005E00F97818EF2FFFEE33FEED33FDEC33FCEBAA
:10006E0033FB10D703994004EB99FB0FD8E5E4F965
:10007E00FA227818EF2FFFEE33FEED33FDEC33FC52
:10008E00C933C910D7059BE99A4007EC9BFCE99A46
:10009E00F90FD8E0E4C9FAE4CCFB2275F010EF2F8B
:1000AE00FFEE33FEED33FDCC33CCC833C810D7078B
:1000BE009BEC9AE899400AED9BFDEC9AFCE899F8C6
:0E00CE000FD5F0DAE4CDFBE4CCFAE4C8F92259
:1000DC00E86010ECA2E713FCED13FDEE13FEEF133A
:0400EC00FFD8F02227
:1000F000EC8EF0A4CCC5F0CCCDF8EFA4CEC5F02D9D
:10010000FDE43CFCE8A42EC8C5F03DFDE43CFCEF5A
:0D011000A4FFE5F028FEE43DFDE43CFC22E8
:1001BC000202BEE493A3F8E493A34003F68001F299
:1001CC0008DFF48029E493A3F85407240CC8C33344
:1001DC00C4540F4420C8834004F456800146F6DF13
:1001EC00E4800B0102040810204080900335E47E6B
:1001FC00019360BCA3FF543F30E509541FFEE49308
:10020C00A360010ECF54C025E060A840B8E493A3CE
:10021C00FAE493A3F8E493A3C8C582C8CAC583CAF9
:10022C00F0A3C8C582C8CAC583CADFE9DEE780BEB1
:01033E0000BE
:00000001FF
