:0700690075800F7FC87E00C7
:10007000758A18758CFCD28C308DFDC28CC28DEFC8
:090080001F70011EEF4E70E82212
:100003005389F0438901E4F580E4FDEDC394027460
:10001300809480503075800112006C75800312004B
:100023006C75800712006C12006975801F12006CDA
:1000330075803F12006C75807F12006C7580FF1213
:10004300006C0D80C6E4F5807FC8FE120070E4FDED
:10005300EDD394027480948050AF1200697580F0E0
:0600630012006C0D80EAA2
:0300000002008972
:0C008900787FE4F6D8FD758107020003C3
:00000001FF
