:0F01760040792430191202780010010204081099
:06015000E493F5A07F011D
:10015600E4FDFCC3ED9FEC9E5015E4FBFA0BBB00DF
:0F016600010AEB647B4A70F50DBD00010C80E4CB
:010175002267
:04000300AB07AA0697
:100007007C277D101200CA8F0C7C277D10AF03AEB2
:10001700021200CA7E037FE8CFCDCFCECCCE12002E
:10002700CA8F0D7C037DE8AF03AE021200CA7E00C3
:100037007F64CFCDCFCECCCE1200CA8F0E7C007D91
:1000470064AF03AE021200CA7E007F0ACFCDCFCEC7
:10005700CCCE1200CA8F0FAE02AF037C007D0A120E
:1000670000CAA905E50C90017693F580900180E41C
:1000770093F5A07F017E00120156E4F5A0E50D90EF
:10008700017693F580900181120150E4F5A0E50E09
:1000970090017693F580900182120150E4F5A0E576
:1000A7000F90017693F580900183120150E4F5A03B
:1000B700AF01EF90017693F580900184120150E42F
:0200C700F5A0A2
:0100C9002214
:10011F005389F0438905E4F58AF58CD28C858C0BD5
:10012F00858A0AE50BB58CF5750800F509E50975A3
:10013F000900F508E50A4209AF09AE08120003806D
:01014F00DCD3
:0300000002018575
:0C018500787FE4F6D8FD75810F02011FA1
:1000CA00BC000BBE0029EF8DF084FFADF022E4CC1A
:1000DA00F875F008EF2FFFEE33FEEC33FCEE9DECE3
:1000EA00984005FCEE9DFE0FD5F0E9E4CEFD22ED29
:1000FA00F8F5F0EE8420D21CFEADF075F008EF2F73
:10010A00FFED33FD4007985006D5F0F222C398FD63
:05011A000FD5F0EA2200
:00000001FF
