:03000000020003F8
:0C000300787FE4F6D8FD758107020081CB
:10006100E4FDFCC3ED9FEC9E5015E4FBFA0BBB00D5
:0F007100010AEB647B4A70F50DBD00010C80E4C1
:01008000225D
:10008100D28AD2AAD2AFC2A3C2A2C2A1C2A04387BE
:030091000180FBF0
:03001300020016D2
:10001600C0E0C0D075D000C002C003C004C005C097
:1000260006C0077F027E00120061209005B2A03054
:1000360090FD209105B2A13091FD209205B2A2302B
:1000460092FD209305B2A33093FDD007D006D005CC
:0B005600D004D003D002D0D0D0E032A4
:00000001FF
