:0F017D0040792430191202780010010204081092
:06015700E493F5A07F0116
:10015D00E4FDFCC3ED9FEC9E5015E4FBFA0BBB00D8
:0F016D00010AEB647B4A70F50DBD00010C80E4C4
:01017C002260
:04000300AB07AA0697
:10000700E4F5A07C277D10AF03AE021200D18F0C60
:100017007C277D10AF03AE021200D17E037FE8CFAD
:10002700CDCFCECCCE1200D18F0D7C037DE8AF03B0
:10003700AE021200D17E007F64CFCDCFCECCCE12E0
:1000470000D18F0E7C007D64AF03AE021200D17E1B
:10005700007F0ACFCDCFCECCCE1200D18F0FAE020C
:10006700AF037C007D0A1200D1A905E50C90017D44
:1000770093F580900187E493F5A07F017E0012013C
:100087005DE4F5A0E50D90017D93F5809001881260
:100097000157E4F5A0E50E90017D93F58090018965
:1000A700120157E4F5A0E50F90017D93F5809001CB
:1000B7008A120157E4F5A0AF01EF90017D93F58017
:0900C70090018B120157E4F5A031
:0100D000220D
:100126005389F0438905E4F58AF58CD28C858C0BCE
:10013600858A0AE50BB58CF5750800F509E509759C
:100146000900F508E50A4209AF09AE081200038066
:01015600DCCC
:0300000002018C6E
:0C018C00787FE4F6D8FD75810F02012693
:1000D100BC000BBE0029EF8DF084FFADF022E4CC13
:1000E100F875F008EF2FFFEE33FEEC33FCEE9DECDC
:1000F100984005FCEE9DFE0FD5F0E9E4CEFD22ED22
:10010100F8F5F0EE8420D21CFEADF075F008EF2F6B
:10011100FFED33FD4007985006D5F0F222C398FD5C
:050121000FD5F0EA22F9
:00000001FF
