:1000000002018C120178120198EF60FA12019E8FA2
:10001000087E00C3EF9430748094804032D3EF9414
:1000200039748094805028120198EF70D9F9E9C38F
:1000300094087480948050EF75F008E508A4242E8D
:10004000F582E5F034001200D8E4F5800980DFAFD6
:10005000087E00C3EF9441748094804032D3EF94C3
:100060005A748094805028120198EF7099F9E9C36E
:1000700094087480948050EF75F008E508A424F685
:10008000F582E5F034FF1200D8E4F5800980DFAF97
:10009000087E00C3EF9461748094805003020006D0
:1000A000D3EF947A74809480400302000612019882
:1000B000EF6003020006F9E9C3940874809480504D
:1000C000EC75F008E508A424F6F582E5F034FE129C
:1000D00000D8E4F5800980DFF583E58229F582E424
:1000E0003583F583E493FF120115E99001A693F59A
:1000F000807F017E00E4FDFCC3ED9FEC9E5015E483
:10010000FBFA0BBB00010AEB647B4A70F50DBD00E6
:10011000010C80E422AD07E4FBEBC39408748094E7
:100120008050237E007480A803088006CEA2E713C7
:10013000CE13D8F8FFEDF582EF558224FF92A1C2CD
:10014000A0D2A00B80D3C2A3D2A322BB010CE58214
:1001500029F582E5833AF583E0225006E92582F805
:10016000E622BBFE06E92582F8E222E58229F58235
:10017000E5833AF583E4932253890F438920C29F94
:10018000D29E758DFDD29CD299D28E22787FE4F6D4
:10019000D8FD7581080201A3A298E433FF22C2981A
:1001A000AF99220200030102040810204080FFC121
:1001B00080AEB680C1FFFFFEEE8080FEFEFFFFDC5A
:1001C00098BAB686CEFFFFDD9CB6B680C9FFFFF3B6
:1001D000EBDB8080FBFFFF8D8CAEAEA0B1FFFFC1DB
:1001E00080B6B690D9FFFF9F9FB8A0879FFFFFC939
:1001F00080B6B680C9FFFFCD84B6B680C1FFFFC010
:1002000080B7B780C0FFFF8080B6B680C9FFFFC14E
:1002100080BEBE9CDDFFFF8080BEBE80C1FFFF8030
:1002200080B6B6BEBEFFFF8080B7B7BFBFFFFFC1BD
:1002300080BEBA98D9FFFF8080F7F78080FFFFFF6C
:10024000BE8080BEFFFFFFF9F8BE8081BFFFFF8048
:1002500080E3C99CBEFFFF8080FEFEFEFEFFFF80A4
:1002600080CFE7CF8080FF8080CFE7F38080FFC121
:1002700080BEBE80C1FFFF8080BBBB83C7FFFFC3C2
:1002800081BDBD80C2FFFF8080B3B184CEFFFFCDB2
:1002900084B6B690D9FFFF9FBF8080BF9FFFFF81CC
:1002A00080FEFE8080FFFF8381FCFC8183FFFF8056
:1002B00080F9F3F98080FF9C88E3F7E3889CFF8F47
:0E02C00087F0F0878FFFFFBCB8B2A68E9EFFBE
:00000001FF
