:0500850012000380FBE6
:10000300E4F580F508F509120055E58025E0F58053
:100013004380010509E50970020508C39408E50852
:10002300940040E3120055E4F580F50AF50B120045
:1000330055E580C313F580438080050BE50B700203
:10004300050AC39408E50A940040E37F2C7E01026D
:02005300005952
:040055007F2C7E017D
:10005900E4FDFCC3ED9FEC9E5015E4FBFA0BBB00DD
:0F006900010AEB647B4A70F50DBD00010C80E4C9
:010078002265
:0300000002007982
:0C007900787FE4F6D8FD75810B0200854D
:00000001FF
