:040003000208000AE5
:1000BF00E4FDFCC3ED9FEC9E5015E4FBFA0BBB0077
:0F00CF00010AEB647B4A70F50DBD00010C80E463
:0100DE0022FF
:1000DF005389F0438901758C3C758AB0D2A9D2AF90
:0700EF00D28C6390FF80FB3F
:03000B0002009A56
:10009A00C0E0C28C758C3C758AB0E50915097002FE
:1000AA001508E50945087008F50875090A63A0FFEF
:0500BA00D28CD0E03201
:0300000002000EED
:0C000E00787FE4F6D8FD758109020055EA
:10001A000200DFE493A3F8E493A34003F68001F21D
:10002A0008DFF48029E493A3F85407240CC8C333E7
:10003A00C4540F4420C8834004F456800146F6DFB6
:10004A00E4800B0102040810204080900003E47E43
:10005A00019360BCA3FF543F30E509541FFEE493AB
:10006A00A360010ECF54C025E060A840B8E493A372
:10007A00FAE493A3F8E493A3C8C582C8CAC583CA9D
:10008A00F0A3C8C582C8CAC583CADFE9DEE780BE55
:0100070000F8
:00000001FF
