:100003000102040810204080FFFFFFFFFFFFFFFFF6
:10001300FFC3817E7E81C3FFFFFFFFFFFFFFFFFF63
:10002300FFFFDEBE00FEFEFFFFFFFFFFFFFFFFFF40
:10003300FF9E3C7872268EFFFFFFFFFFFFFFFFFF4F
:10004300FF242424240000FFFFFFFFFFFFFFFFFF27
:10005300F3E3C393330000FFFFFFFFFFFFFFFFFF47
:10006300FF040424242020FFFFFFFFFFFFFFFFFF07
:10007300FF000066662020FFFFFFFFFFFFFFFFFF7B
:10008300FF3F3C38310307FFFFFFFFFFFFFFFFFF89
:10009300FF000024240000FFFFFFFFFFFFFFFFFF1F
:1000A300FF040424240000FFFFFFFFFFFFFFFFFF07
:10012900E4FDFCC3ED9FEC9E5015E4FBFA0BBB000C
:0F013900010AEB647B4A70F50DBD00010C80E4F8
:010148002294
:1000B300E4F508F509E4F50CF50DE4F50AF50BE5AF
:1000C30009250BFFE508350AFE740B2FF582740032
:1000D3003EF583E493F5B07403250BF58274003584
:1000E3000AF583E493F5807F017E00120129E4F58C
:1000F30080050BE50B7002050AC39408E50A94001A
:1001030040BD050DE50D7002050CC39414E50C9478
:100113000040A70509E50970020508C394A0E50896
:0601230094004091808A67
:030155000200B3F2
:03000000020149B1
:0C014900787FE4F6D8FD75810D020155A9
:00000001FF
