:0A011000C0F9A4B0999282F8809023
:1000E400E4FDFCC3ED9FEC9E5015E4FBFA0BBB0052
:0F00F400010AEB647B4A70F50DBD00010C80E43E
:0101030022D9
:060003003090030200E34F
:07000900E4F508F509F50A12
:10001000E4F50DF50EE50875F00A84F50BE50875B5
:10002000F00A8485F00CE50B90011093F5A0C2B0A6
:100030007F017E001200E4D2B0E50C93F5A0C2B1BE
:100040007F011200E4D2B1E50975F00A84F50BE5F1
:100050000975F00A8485F00CE50B93F5A0C2B27F18
:10006000011200E4D2B2E50C93F5A0C2B37F0112F5
:1000700000E4D2B3E50A75F00A84F50BE50A75F0E1
:100080000A8485F00CE50B93F5A0C2B47F01120041
:10009000E4D2B4E50C93F5A0C2B57F011200E4D21E
:1000A000B5050EE50E7002050DC394A7E50D94008D
:1000B0005003020015050AE50A643C6003020010C3
:1000C000F50A0509E509643C6003020010F509051D
:1000D00008E50864186003020010F508F50AF50940
:0300E0000200100B
:0100E30022FA
:05011A0012000380FB50
:03000000020104F6
:0C010400787FE4F6D8FD75810E02011A28
:00000001FF
