:0B047A00566F6C74616765203D200028
:10040600E4FDFCC3ED9FEC9E5015E4FBFA0BBB002C
:0F041600010AEB647B4A70F50DBD00010C80E418
:0104250022B4
:07037B007E001204067F3032
:10038200C2A08F80C2A1D2A1D3EF940374809480C3
:0E03920050047F0280027F017E0012040622CA
:0F045F00D2A08F80C2A1D2A17F017E000204062D
:0603A0008B0D8A0E890F8F
:1003A600E4F510AB0DAA0EA90F8510827583001215
:0C03B6000268FF600712045F051080E77A
:0103C2002218
:04044400AE07A90353
:10044800EF640170047F8080027FC0EF2D14FF12DB
:070458000382AF0102045F03
:0603E5008B0A8A0B890C53
:1003EB00EF640170047F8080027FC0EF2D14FF1239
:0B03FB000382AB0AAA0BA90C0203A0AE
:100426007F6412037B7F0512037B7F0112037BE44B
:0E043600FF1203827F0C1203827F38020382C2
:07048500C294C293C296224B
:1003C300EF139290EFA2E19291A2E29292D293D292
:1003D30094C293C2942095FD3095FDD296AFB0C2DE
:0103E3009683
:0103E40022F6
:1002F8001204261204857BFF7A04797A7D017F0136
:100308001203E5E4FF1203C3AC07E41201B3E4FBF4
:10031800FA79FA7843120003E4FBFA7980784312F9
:10032800010C1201E78E088F097C007D641202958A
:10033800EF2430FB7D0B7F011204447F2E12045FF3
:10034800AE08AF097C007D641202957E007F0ACF5B
:10035800CDCFCECCCE120295EF2430FF12045FAE83
:1003680008AF097C007D0A120295ED2430FF1204C3
:030378005F809013
:10000300EC4D6011E8497017ED33EC3304600DE4F7
:10001300FCFFFEFD22E933E8330470F802025312B9
:10002300021E58046009E4CC2481500628500902BA
:10003300025D28400302025AC0E0EB4A7044B980D3
:1000430006D0E0FB020249EF4E701CBD8008EBFFB7
:10005300EAFEE9FD80EBE98DF0A4FEE5F00200EC99
:10006300E9CDF9EAFEEBFFEF89F0A4FCE5F0CE89D8
:10007300F0A42EFFE435F0CD89F0A42DFEE435F095
:100083008067EF4E7005BD80D780C3EF8BF0A4ACC3
:10009300F0EE8BF0A42CFCE435F0F8EF8AF0A42CFE
:1000A300E5F038FCE433CB8DF0A42CFCE5F03BF811
:1000B300EE8AF0A42CFCE5F038F8E433CF89F0A401
:1000C3002CFCE5F038CF3400CE89F0A42FFFE5F007
:1000D3003EFEE433C98DF0A42EFEE5F039CD8AF05F
:1000E300A42FFFE5F03EFEE43DFD33D0E0FB5007D7
:1000F3000BBB000F02025DEC2CFCEF33FFEE33FE73
:06010300ED33FD020235A0
:1001090002025DEC5D046005E859047003020253C4
:1001190012021E580460F6EC4860F2EC7004FDFE11
:10012900FF22C860DB2481C85009C39860025006C9
:1001390002025A9850CAF582E9294B4A7005AB82E6
:1001490002024975F0007C1A7880C3EF9BEE9AEDA4
:1001590099400DC3EF9BFFEE9AFEED99FDE842F041
:10016900DC23ACF0D0E0FFD0E0FED0E0FDAB822094
:10017900E7101BEB60BAEC2CFCEF33FFEE33FEED1E
:1001890033FD020235E803F830E705C0F075F000E9
:10019900EF2FFFEE33FEED33FD40B830E7C280AA02
:1001A90075F020800E75F010800575F0087D007ED1
:1001B900007F003392D530D5031202EAEC334010A8
:1001C900EF33FFEE33FEED33FDEC33FCD5F0ED22DA
:0E01D900E5F0247EA2D513CC92E7CDCEFF2216
:1001E700EDD2E7CD33EC3392D524814006E4FFFE10
:1001F700FDFC22FCE4CFCECDCC24E0501174FF806F
:10020700EDC3CC13CCCD13CDCE13CECF13CF04700B
:07021700F030D5DE0202EA1F
:10021E00E9D2E7C933E833F892D5EDD2E7CD33EC26
:07022E0033FC5002B2D5229F
:10023500EC30E7100FBF000C0EBE00080DBD00042A
:100245000BEB6014A2D5EB13FCED92E7FD2274FFD6
:10025500FCFDFEFF22E480F8A2D574FF13FC7D802F
:03026500E480EF43
:0300000002046E89
:0C046E00787FE4F6D8FD7581100202F8DA
:10026800BB010CE58229F582E5833AF583E022504B
:1002780006E92582F8E622BBFE06E92582F8E22295
:0D028800E58229F582E5833AF583E49322AF
:10029500BC000BBE0029EF8DF084FFADF022E4CC4D
:1002A500F875F008EF2FFFEE33FEEC33FCEE9DEC16
:1002B500984005FCEE9DFE0FD5F0E9E4CEFD22ED5C
:1002C500F8F5F0EE8420D21CFEADF075F008EF2FA6
:1002D500FFED33FD4007985006D5F0F222C398FD97
:0502E5000FD5F0EA2234
:0E02EA00C3E49FFFE49EFEE49DFDE49CFC2225
:00000001FF
