:100003000102040810204080FFFFFFFFFFFFFFFFF6
:10001300FFFFFFFFFFFFFFFFFFFFFFFFFFFFFFFFED
:10002300FFC3817E7E81C3FFFFFFFFFFFFFFFFFF53
:10003300FFFFDEBE00FEFEFFFFFFFFFFFFFFFFFF30
:10004300FF9E3C7872268EFFFFFFFFFFFFFFFFFF3F
:10005300FF242424240000FFFFFFFFFFFFFFFFFF17
:10006300F3E3C393330000FFFFFFFFFFFFFFFFFF37
:10007300FF040424242020FFFFFFFFFFFFFFFFFFF7
:10008300FF000066662020FFFFFFFFFFFFFFFFFF6B
:10009300FF3F3C38310307FFFFFFFFFFFFFFFFFF79
:1000A300FF000024240000FFFFFFFFFFFFFFFFFF0F
:1000B300FF040424240000FFFFFFFFFFFFFFFFFFF7
:1000C300FFFFFFFFFFFFFFFFFFFFFFFFFFFFFFFF3D
:0800D300FFFFFFFFFFFFFFFF2D
:10019E00E4FDFCC3ED9FEC9E5015E4FBFA0BBB0097
:0F01AE00010AEB647B4A70F50DBD00010C80E483
:0101BD00221F
:060162003EF583E493FF6B
:02016800AD07E1
:10016A00E4FBEBC394087480948050237E0074806F
:10017A00A803088006CEA2E713CE13D8F8FFEDF540
:10018A0082EF558224FF92A1C2A0D2A00B80D3C2D3
:03019A00A3D2A34A
:01019D00223F
:1000DB00E4F508F509E4F50CF50DE4F50AF50BE587
:1000EB0009250BFFE508350AFE740B2FF58274000A
:1000FB00120162E509250BFFE508350AFE74132F83
:10010B00F58274001201627403250BF582740035BD
:10011B000AF583E493F5807F017E0012019EE4F5DE
:10012B0080050BE50B7002050AC39408E50A9400E1
:10013B0040AD050DE50D7002050CC39405E50C945F
:10014B000040970509E50970020508C394C0E5084E
:07015B00940040810200DB6B
:0301CA000200DB55
:030000000201BE3C
:0C01BE00787FE4F6D8FD75810D0201CABF
:00000001FF
