:1000000002016A7E001201087F30C2808FA0D28177
:10001000C281D3EF94037480948050047F028002E5
:080020007F017E00120108229D
:10002B0002002EC0E0C083C082C0D075D000C000DB
:10003B00C001C002C003C004C005C006C00730CF5A
:10004B0016C2CA1200BC7BFF7A0179827D017F0246
:10005B001200C6C2CF8014D2CA1200BC7BFF7A0139
:10006B0079917D017F021200C6C2CED007D006D097
:10007B0005D004D003D002D001D000D0D0D082D094
:10008B0083D0E032BB010CE58229F582E5833AF59A
:10009B0083E0225006E92582F8E622BBFE06E9251D
:1000AB0082F8E222E58229F582E5833AF583E4932F
:1000BB00227BFF7A0179767D017F018B088A098982
:1000CB000AEF64017FC070027F80EF2D14FF1200D6
:1000DB000AAB08AA09A90A0200E58B0B8A0C890D49
:1000EB00E4F50EAB0BAA0CA90D850E8275830012DD
:1000FB00008FFF600712015B050E80E722E4FDFC19
:10010B00C3ED9FEC9E5015E4FBFA0BBB00010AEB11
:10011B00647B4A70F50DBD00010C80E4227F6412F4
:10012B0000037F051200037F011200037F01120001
:10013B000A7F0C12000A7F3802000A120128E4F52C
:10014B00C975C80875CB3C75CAB0D2ADD2AF80FEAD
:10015B00D2808FA0D281C2817F017E0002010878FC
:10016B007FE4F6D8FD75810E020146496E666F720B
:10017B006D6174696F6E004B484F4E4720434F20A3
:10018B0058554E47200058554154204849454E205C
:05019B0058554E47001D
:00000001FF
