:0300CD00020065C9
:0A00C300C0F9A4B0999282F8809071
:10009700E4FDFCC3ED9FEC9E5015E4FBFA0BBB009F
:0F00A700010AEB647B4A70F50DBD00010C80E48B
:0100B6002227
:10000300E4FFC2902094010F2095027F0220960204
:100013007F032097027F04D290C2912094027F0530
:100023002095027F062096027F072097027F08D241
:1000330091C2922094027F092095027F0A209602A2
:100043007F0B2097027F0CD292C2932094027F0DE4
:100053002095027F0E2096027F0F2097027F10D2F9
:010063009309
:010064002279
:10006500120003EF6001F9E975F00A849000C3936B
:10007500F580C2B07F017E00120097D2B0E975F01D
:100085000A84E5F093F580C2B17F01120097D2B1E1
:0200950080CE1B
:030000000200B744
:0C00B700787FE4F6D8FD7581070200CDCB
:00000001FF
