:03010200020003F5
:0A00F800C0F9A4B0999282F880903C
:1000CC00E4FDFCC3ED9FEC9E5015E4FBFA0BBB006A
:0F00DC00010AEB647B4A70F50DBD00010C80E456
:0100EB0022F2
:060003003090030200CB67
:04000900E40200C24B
:10000D00E4F50BF50CE50A75F00A84E5F09000F8BF
:10001D0093F580C2A57F017E001200CCD2A5E50A22
:10002D0075F00A8493F580C2A47F011200CCD2A48E
:10003D00E50975F00A84E5F093F580C2A37F0112FE
:10004D0000CCD2A3E50975F00A8493F580C2A27F96
:10005D00011200CCD2A2E50875F00A84E5F093F503
:10006D0080C2A17F011200CCD2A1E50875F00A84EF
:10007D0093F580C2A07F011200CCD2A0050CE50C37
:10008D007002050BC394A6E50B94005003020012F9
:10009D00050AE50A643C600302000DF50A0509E551
:1000AD0009643C600302000DF5090508E5086418B4
:0B00BD00600302000DF508F509F50ACC
:0300C80002000D26
:0100CB002212
:030000000200EC0F
:0C00EC00787FE4F6D8FD75810C0201025B
:00000001FF
